{
  "contractName": "Token",
  "abi": [
    {
      "inputs": [
        {
          "internalType": "string",
          "name": "name_",
          "type": "string"
        },
        {
          "internalType": "string",
          "name": "symbol_",
          "type": "string"
        }
      ],
      "stateMutability": "nonpayable",
      "type": "constructor"
    },
    {
      "anonymous": false,
      "inputs": [
        {
          "indexed": false,
          "internalType": "address",
          "name": "",
          "type": "address"
        }
      ],
      "name": "AdminSet",
      "type": "event"
    },
    {
      "anonymous": false,
      "inputs": [
        {
          "indexed": false,
          "internalType": "address",
          "name": "",
          "type": "address"
        },
        {
          "indexed": false,
          "internalType": "address",
          "name": "",
          "type": "address"
        },
        {
          "indexed": false,
          "internalType": "uint256",
          "name": "",
          "type": "uint256"
        }
      ],
      "name": "Approval",
      "type": "event"
    },
    {
      "anonymous": false,
      "inputs": [
        {
          "indexed": false,
          "internalType": "address",
          "name": "",
          "type": "address"
        }
      ],
      "name": "OwnershipTransfered",
      "type": "event"
    },
    {
      "anonymous": false,
      "inputs": [
        {
          "indexed": false,
          "internalType": "address",
          "name": "",
          "type": "address"
        },
        {
          "indexed": false,
          "internalType": "address",
          "name": "",
          "type": "address"
        },
        {
          "indexed": false,
          "internalType": "uint256",
          "name": "",
          "type": "uint256"
        }
      ],
      "name": "Transfer",
      "type": "event"
    },
    {
      "inputs": [],
      "name": "name",
      "outputs": [
        {
          "internalType": "string",
          "name": "",
          "type": "string"
        }
      ],
      "stateMutability": "view",
      "type": "function"
    },
    {
      "inputs": [],
      "name": "symbol",
      "outputs": [
        {
          "internalType": "string",
          "name": "",
          "type": "string"
        }
      ],
      "stateMutability": "view",
      "type": "function"
    },
    {
      "inputs": [],
      "name": "decimals",
      "outputs": [
        {
          "internalType": "uint8",
          "name": "",
          "type": "uint8"
        }
      ],
      "stateMutability": "view",
      "type": "function"
    },
    {
      "inputs": [],
      "name": "totalSupply",
      "outputs": [
        {
          "internalType": "uint256",
          "name": "",
          "type": "uint256"
        }
      ],
      "stateMutability": "view",
      "type": "function"
    },
    {
      "inputs": [],
      "name": "getOwner",
      "outputs": [
        {
          "internalType": "address",
          "name": "",
          "type": "address"
        }
      ],
      "stateMutability": "view",
      "type": "function"
    },
    {
      "inputs": [],
      "name": "remainingTokens",
      "outputs": [
        {
          "internalType": "uint256",
          "name": "",
          "type": "uint256"
        }
      ],
      "stateMutability": "view",
      "type": "function"
    },
    {
      "inputs": [
        {
          "internalType": "address",
          "name": "_address",
          "type": "address"
        }
      ],
      "name": "setAdmin",
      "outputs": [
        {
          "internalType": "bool",
          "name": "",
          "type": "bool"
        }
      ],
      "stateMutability": "nonpayable",
      "type": "function"
    },
    {
      "inputs": [
        {
          "internalType": "uint256",
          "name": "amount",
          "type": "uint256"
        }
      ],
      "name": "setMaxSupply",
      "outputs": [
        {
          "internalType": "bool",
          "name": "",
          "type": "bool"
        }
      ],
      "stateMutability": "nonpayable",
      "type": "function"
    },
    {
      "inputs": [
        {
          "internalType": "address",
          "name": "_address",
          "type": "address"
        }
      ],
      "name": "transferOwnership",
      "outputs": [
        {
          "internalType": "bool",
          "name": "",
          "type": "bool"
        }
      ],
      "stateMutability": "nonpayable",
      "type": "function"
    },
    {
      "inputs": [
        {
          "internalType": "address",
          "name": "owner",
          "type": "address"
        }
      ],
      "name": "balanceOf",
      "outputs": [
        {
          "internalType": "uint256",
          "name": "",
          "type": "uint256"
        }
      ],
      "stateMutability": "view",
      "type": "function"
    },
    {
      "inputs": [
        {
          "internalType": "uint256",
          "name": "amount",
          "type": "uint256"
        }
      ],
      "name": "setTotalSupply",
      "outputs": [
        {
          "internalType": "bool",
          "name": "",
          "type": "bool"
        }
      ],
      "stateMutability": "nonpayable",
      "type": "function"
    },
    {
      "inputs": [
        {
          "internalType": "address",
          "name": "to",
          "type": "address"
        },
        {
          "internalType": "uint256",
          "name": "amount",
          "type": "uint256"
        }
      ],
      "name": "ownerMint",
      "outputs": [
        {
          "internalType": "bool",
          "name": "",
          "type": "bool"
        }
      ],
      "stateMutability": "nonpayable",
      "type": "function"
    },
    {
      "inputs": [
        {
          "internalType": "address",
          "name": "owner",
          "type": "address"
        },
        {
          "internalType": "address",
          "name": "spender",
          "type": "address"
        }
      ],
      "name": "allowance",
      "outputs": [
        {
          "internalType": "uint256",
          "name": "",
          "type": "uint256"
        }
      ],
      "stateMutability": "view",
      "type": "function"
    },
    {
      "inputs": [
        {
          "internalType": "address",
          "name": "to",
          "type": "address"
        },
        {
          "internalType": "uint256",
          "name": "value",
          "type": "uint256"
        }
      ],
      "name": "transfer",
      "outputs": [
        {
          "internalType": "bool",
          "name": "",
          "type": "bool"
        }
      ],
      "stateMutability": "nonpayable",
      "type": "function"
    },
    {
      "inputs": [
        {
          "internalType": "address",
          "name": "spender",
          "type": "address"
        },
        {
          "internalType": "uint256",
          "name": "value",
          "type": "uint256"
        }
      ],
      "name": "approve",
      "outputs": [
        {
          "internalType": "bool",
          "name": "",
          "type": "bool"
        }
      ],
      "stateMutability": "nonpayable",
      "type": "function"
    },
    {
      "inputs": [
        {
          "internalType": "address",
          "name": "from",
          "type": "address"
        },
        {
          "internalType": "address",
          "name": "to",
          "type": "address"
        },
        {
          "internalType": "uint256",
          "name": "value",
          "type": "uint256"
        }
      ],
      "name": "transferFrom",
      "outputs": [
        {
          "internalType": "bool",
          "name": "",
          "type": "bool"
        }
      ],
      "stateMutability": "nonpayable",
      "type": "function"
    },
    {
      "inputs": [
        {
          "internalType": "address",
          "name": "spender",
          "type": "address"
        },
        {
          "internalType": "uint256",
          "name": "addedValue",
          "type": "uint256"
        }
      ],
      "name": "increaseAllowance",
      "outputs": [
        {
          "internalType": "bool",
          "name": "",
          "type": "bool"
        }
      ],
      "stateMutability": "nonpayable",
      "type": "function"
    },
    {
      "inputs": [
        {
          "internalType": "address",
          "name": "spender",
          "type": "address"
        },
        {
          "internalType": "uint256",
          "name": "subtractedValue",
          "type": "uint256"
        }
      ],
      "name": "decreaseAllowance",
      "outputs": [
        {
          "internalType": "bool",
          "name": "",
          "type": "bool"
        }
      ],
      "stateMutability": "nonpayable",
      "type": "function"
    }
  ],
  "bytecode": "0x60806040523480156200001157600080fd5b5060405162002a0838038062002a088339818101604052810190620000379190620002b5565b816004908162000048919062000585565b5080600590816200005a919062000585565b506012600660006101000a81548160ff021916908360ff16021790555033600860006101000a81548173ffffffffffffffffffffffffffffffffffffffff021916908373ffffffffffffffffffffffffffffffffffffffff1602179055506001600260003373ffffffffffffffffffffffffffffffffffffffff1673ffffffffffffffffffffffffffffffffffffffff16815260200190815260200160002060006101000a81548160ff02191690831515021790555050506200066c565b6000604051905090565b600080fd5b600080fd5b600080fd5b600080fd5b6000601f19601f8301169050919050565b7f4e487b7100000000000000000000000000000000000000000000000000000000600052604160045260246000fd5b620001818262000136565b810181811067ffffffffffffffff82111715620001a357620001a262000147565b5b80604052505050565b6000620001b862000118565b9050620001c6828262000176565b919050565b600067ffffffffffffffff821115620001e957620001e862000147565b5b620001f48262000136565b9050602081019050919050565b60005b838110156200022157808201518184015260208101905062000204565b8381111562000231576000848401525b50505050565b60006200024e6200024884620001cb565b620001ac565b9050828152602081018484840111156200026d576200026c62000131565b5b6200027a84828562000201565b509392505050565b600082601f8301126200029a57620002996200012c565b5b8151620002ac84826020860162000237565b91505092915050565b60008060408385031215620002cf57620002ce62000122565b5b600083015167ffffffffffffffff811115620002f057620002ef62000127565b5b620002fe8582860162000282565b925050602083015167ffffffffffffffff81111562000322576200032162000127565b5b620003308582860162000282565b9150509250929050565b600081519050919050565b7f4e487b7100000000000000000000000000000000000000000000000000000000600052602260045260246000fd5b600060028204905060018216806200038d57607f821691505b602082108103620003a357620003a262000345565b5b50919050565b60008190508160005260206000209050919050565b60006020601f8301049050919050565b600082821b905092915050565b6000600883026200040d7fffffffffffffffffffffffffffffffffffffffffffffffffffffffffffffffff82620003ce565b620004198683620003ce565b95508019841693508086168417925050509392505050565b6000819050919050565b6000819050919050565b600062000466620004606200045a8462000431565b6200043b565b62000431565b9050919050565b6000819050919050565b620004828362000445565b6200049a62000491826200046d565b848454620003db565b825550505050565b600090565b620004b1620004a2565b620004be81848462000477565b505050565b5b81811015620004e657620004da600082620004a7565b600181019050620004c4565b5050565b601f8211156200053557620004ff81620003a9565b6200050a84620003be565b810160208510156200051a578190505b620005326200052985620003be565b830182620004c3565b50505b505050565b600082821c905092915050565b60006200055a600019846008026200053a565b1980831691505092915050565b600062000575838362000547565b9150826002028217905092915050565b62000590826200033a565b67ffffffffffffffff811115620005ac57620005ab62000147565b5b620005b8825462000374565b620005c5828285620004ea565b600060209050601f831160018114620005fd5760008415620005e8578287015190505b620005f4858262000567565b86555062000664565b601f1984166200060d86620003a9565b60005b82811015620006375784890151825560018201915060208501945060208101905062000610565b8683101562000657578489015162000653601f89168262000547565b8355505b6001600288020188555050505b505050505050565b61238c806200067c6000396000f3fe608060405234801561001057600080fd5b50600436106101165760003560e01c806370a08231116100a2578063a9059cbb11610071578063a9059cbb14610331578063bf58390314610361578063dd62ed3e1461037f578063f2fde38b146103af578063f7ea7a3d146103df57610116565b806370a0823114610295578063893d20e8146102c557806395d89b41146102e3578063a457c2d71461030157610116565b8063313ce567116100e9578063313ce567146101b757806339509351146101d5578063484b973c146102055780636f8b44b014610235578063704b6c021461026557610116565b806306fdde031461011b578063095ea7b31461013957806318160ddd1461016957806323b872dd14610187575b600080fd5b61012361040f565b6040516101309190611963565b60405180910390f35b610153600480360381019061014e9190611a1e565b6104a1565b6040516101609190611a79565b60405180910390f35b6101716105d7565b60405161017e9190611aa3565b60405180910390f35b6101a1600480360381019061019c9190611abe565b6105e1565b6040516101ae9190611a79565b60405180910390f35b6101bf6109f8565b6040516101cc9190611b2d565b60405180910390f35b6101ef60048036038101906101ea9190611a1e565b610a0f565b6040516101fc9190611a79565b60405180910390f35b61021f600480360381019061021a9190611a1e565b610c48565b60405161022c9190611a79565b60405180910390f35b61024f600480360381019061024a9190611b48565b610dcb565b60405161025c9190611a79565b60405180910390f35b61027f600480360381019061027a9190611b75565b610e6d565b60405161028c9190611a79565b60405180910390f35b6102af60048036038101906102aa9190611b75565b610f97565b6040516102bc9190611aa3565b60405180910390f35b6102cd610fdf565b6040516102da9190611bb1565b60405180910390f35b6102eb611009565b6040516102f89190611963565b60405180910390f35b61031b60048036038101906103169190611a1e565b61109b565b6040516103289190611a79565b60405180910390f35b61034b60048036038101906103469190611a1e565b6112d4565b6040516103589190611a79565b60405180910390f35b610369611523565b6040516103769190611aa3565b60405180910390f35b61039960048036038101906103949190611bcc565b61153f565b6040516103a69190611aa3565b60405180910390f35b6103c960048036038101906103c49190611b75565b6115c6565b6040516103d69190611a79565b60405180910390f35b6103f960048036038101906103f49190611b48565b6116d9565b6040516104069190611a79565b60405180910390f35b60606004805461041e90611c3b565b80601f016020809104026020016040519081016040528092919081815260200182805461044a90611c3b565b80156104975780601f1061046c57610100808354040283529160200191610497565b820191906000526020600020905b81548152906001019060200180831161047a57829003601f168201915b5050505050905090565b60008073ffffffffffffffffffffffffffffffffffffffff168373ffffffffffffffffffffffffffffffffffffffff1603610511576040517f08c379a000000000000000000000000000000000000000000000000000000000815260040161050890611cde565b60405180910390fd5b81600160003373ffffffffffffffffffffffffffffffffffffffff1673ffffffffffffffffffffffffffffffffffffffff16815260200190815260200160002060008573ffffffffffffffffffffffffffffffffffffffff1673ffffffffffffffffffffffffffffffffffffffff168152602001908152602001600020819055507f8c5be1e5ebec7d5bd14f71427d1e84f3dd0314c0f7b2291e5b200ac8c7c3b9253384846040516105c593929190611cfe565b60405180910390a16001905092915050565b6000600354905090565b60008060008573ffffffffffffffffffffffffffffffffffffffff1673ffffffffffffffffffffffffffffffffffffffff16815260200190815260200160002054821115610664576040517f08c379a000000000000000000000000000000000000000000000000000000000815260040161065b90611da7565b60405180910390fd5b600160008573ffffffffffffffffffffffffffffffffffffffff1673ffffffffffffffffffffffffffffffffffffffff16815260200190815260200160002060003373ffffffffffffffffffffffffffffffffffffffff1673ffffffffffffffffffffffffffffffffffffffff16815260200190815260200160002054821115610723576040517f08c379a000000000000000000000000000000000000000000000000000000000815260040161071a90611e39565b60405180910390fd5b600073ffffffffffffffffffffffffffffffffffffffff168373ffffffffffffffffffffffffffffffffffffffff1603610792576040517f08c379a000000000000000000000000000000000000000000000000000000000815260040161078990611ecb565b60405180910390fd5b816000808673ffffffffffffffffffffffffffffffffffffffff1673ffffffffffffffffffffffffffffffffffffffff168152602001908152602001600020546107dc9190611f1a565b6000808673ffffffffffffffffffffffffffffffffffffffff1673ffffffffffffffffffffffffffffffffffffffff16815260200190815260200160002081905550816000808573ffffffffffffffffffffffffffffffffffffffff1673ffffffffffffffffffffffffffffffffffffffff168152602001908152602001600020546108689190611f4e565b6000808573ffffffffffffffffffffffffffffffffffffffff1673ffffffffffffffffffffffffffffffffffffffff1681526020019081526020016000208190555081600160008673ffffffffffffffffffffffffffffffffffffffff1673ffffffffffffffffffffffffffffffffffffffff16815260200190815260200160002060003373ffffffffffffffffffffffffffffffffffffffff1673ffffffffffffffffffffffffffffffffffffffff168152602001908152602001600020546109329190611f1a565b600160008673ffffffffffffffffffffffffffffffffffffffff1673ffffffffffffffffffffffffffffffffffffffff16815260200190815260200160002060003373ffffffffffffffffffffffffffffffffffffffff1673ffffffffffffffffffffffffffffffffffffffff168152602001908152602001600020819055507fddf252ad1be2c89b69c2b068fc378daa952ba7f163c4a11628f55a4df523b3ef8484846040516109e593929190611cfe565b60405180910390a1600190509392505050565b6000600660009054906101000a900460ff16905090565b60008073ffffffffffffffffffffffffffffffffffffffff168373ffffffffffffffffffffffffffffffffffffffff1603610a7f576040517f08c379a0000000000000000000000000000000000000000000000000000000008152600401610a7690612016565b60405180910390fd5b81600160003373ffffffffffffffffffffffffffffffffffffffff1673ffffffffffffffffffffffffffffffffffffffff16815260200190815260200160002060008573ffffffffffffffffffffffffffffffffffffffff1673ffffffffffffffffffffffffffffffffffffffff16815260200190815260200160002054610b079190611f4e565b600160003373ffffffffffffffffffffffffffffffffffffffff1673ffffffffffffffffffffffffffffffffffffffff16815260200190815260200160002060008573ffffffffffffffffffffffffffffffffffffffff1673ffffffffffffffffffffffffffffffffffffffff168152602001908152602001600020819055507f8c5be1e5ebec7d5bd14f71427d1e84f3dd0314c0f7b2291e5b200ac8c7c3b9253384600160003373ffffffffffffffffffffffffffffffffffffffff1673ffffffffffffffffffffffffffffffffffffffff16815260200190815260200160002060008773ffffffffffffffffffffffffffffffffffffffff1673ffffffffffffffffffffffffffffffffffffffff16815260200190815260200160002054604051610c3693929190611cfe565b60405180910390a16001905092915050565b6000600860009054906101000a900473ffffffffffffffffffffffffffffffffffffffff1673ffffffffffffffffffffffffffffffffffffffff163373ffffffffffffffffffffffffffffffffffffffff161480610cf6575060011515600260003373ffffffffffffffffffffffffffffffffffffffff1673ffffffffffffffffffffffffffffffffffffffff16815260200190815260200160002060009054906101000a900460ff161515145b610d35576040517f08c379a0000000000000000000000000000000000000000000000000000000008152600401610d2c906120a8565b60405180910390fd5b60075460035410610d7b576040517f08c379a0000000000000000000000000000000000000000000000000000000008152600401610d729061213a565b60405180910390fd5b610d85838361177b565b7fddf252ad1be2c89b69c2b068fc378daa952ba7f163c4a11628f55a4df523b3ef60008484604051610db993929190611cfe565b60405180910390a16001905092915050565b6000600860009054906101000a900473ffffffffffffffffffffffffffffffffffffffff1673ffffffffffffffffffffffffffffffffffffffff163373ffffffffffffffffffffffffffffffffffffffff1614610e5d576040517f08c379a0000000000000000000000000000000000000000000000000000000008152600401610e54906121cc565b60405180910390fd5b8160078190555060019050919050565b6000600860009054906101000a900473ffffffffffffffffffffffffffffffffffffffff1673ffffffffffffffffffffffffffffffffffffffff163373ffffffffffffffffffffffffffffffffffffffff1614610eff576040517f08c379a0000000000000000000000000000000000000000000000000000000008152600401610ef6906121cc565b60405180910390fd5b6001600260008473ffffffffffffffffffffffffffffffffffffffff1673ffffffffffffffffffffffffffffffffffffffff16815260200190815260200160002060006101000a81548160ff0219169083151502179055507f8fe72c3e0020beb3234e76ae6676fa576fbfcae600af1c4fea44784cf0db329c82604051610f869190611bb1565b60405180910390a160019050919050565b60008060008373ffffffffffffffffffffffffffffffffffffffff1673ffffffffffffffffffffffffffffffffffffffff168152602001908152602001600020549050919050565b6000600860009054906101000a900473ffffffffffffffffffffffffffffffffffffffff16905090565b60606005805461101890611c3b565b80601f016020809104026020016040519081016040528092919081815260200182805461104490611c3b565b80156110915780601f1061106657610100808354040283529160200191611091565b820191906000526020600020905b81548152906001019060200180831161107457829003601f168201915b5050505050905090565b60008073ffffffffffffffffffffffffffffffffffffffff168373ffffffffffffffffffffffffffffffffffffffff160361110b576040517f08c379a000000000000000000000000000000000000000000000000000000000815260040161110290612016565b60405180910390fd5b81600160003373ffffffffffffffffffffffffffffffffffffffff1673ffffffffffffffffffffffffffffffffffffffff16815260200190815260200160002060008573ffffffffffffffffffffffffffffffffffffffff1673ffffffffffffffffffffffffffffffffffffffff168152602001908152602001600020546111939190611f1a565b600160003373ffffffffffffffffffffffffffffffffffffffff1673ffffffffffffffffffffffffffffffffffffffff16815260200190815260200160002060008573ffffffffffffffffffffffffffffffffffffffff1673ffffffffffffffffffffffffffffffffffffffff168152602001908152602001600020819055507f8c5be1e5ebec7d5bd14f71427d1e84f3dd0314c0f7b2291e5b200ac8c7c3b9253384600160003373ffffffffffffffffffffffffffffffffffffffff1673ffffffffffffffffffffffffffffffffffffffff16815260200190815260200160002060008773ffffffffffffffffffffffffffffffffffffffff1673ffffffffffffffffffffffffffffffffffffffff168152602001908152602001600020546040516112c293929190611cfe565b60405180910390a16001905092915050565b60008060003373ffffffffffffffffffffffffffffffffffffffff1673ffffffffffffffffffffffffffffffffffffffff16815260200190815260200160002054821115611357576040517f08c379a000000000000000000000000000000000000000000000000000000000815260040161134e90612238565b60405180910390fd5b600073ffffffffffffffffffffffffffffffffffffffff168373ffffffffffffffffffffffffffffffffffffffff16036113c6576040517f08c379a00000000000000000000000000000000000000000000000000000000081526004016113bd906122a4565b60405180910390fd5b816000803373ffffffffffffffffffffffffffffffffffffffff1673ffffffffffffffffffffffffffffffffffffffff168152602001908152602001600020546114109190611f1a565b6000803373ffffffffffffffffffffffffffffffffffffffff1673ffffffffffffffffffffffffffffffffffffffff16815260200190815260200160002081905550816000808573ffffffffffffffffffffffffffffffffffffffff1673ffffffffffffffffffffffffffffffffffffffff1681526020019081526020016000205461149c9190611f4e565b6000808573ffffffffffffffffffffffffffffffffffffffff1673ffffffffffffffffffffffffffffffffffffffff168152602001908152602001600020819055507fddf252ad1be2c89b69c2b068fc378daa952ba7f163c4a11628f55a4df523b3ef33848460405161151193929190611cfe565b60405180910390a16001905092915050565b6000806003546007546115369190611f1a565b90508091505090565b6000600160008473ffffffffffffffffffffffffffffffffffffffff1673ffffffffffffffffffffffffffffffffffffffff16815260200190815260200160002060008373ffffffffffffffffffffffffffffffffffffffff1673ffffffffffffffffffffffffffffffffffffffff16815260200190815260200160002054905092915050565b6000600860009054906101000a900473ffffffffffffffffffffffffffffffffffffffff1673ffffffffffffffffffffffffffffffffffffffff163373ffffffffffffffffffffffffffffffffffffffff1614611658576040517f08c379a000000000000000000000000000000000000000000000000000000000815260040161164f906121cc565b60405180910390fd5b81600860006101000a81548173ffffffffffffffffffffffffffffffffffffffff021916908373ffffffffffffffffffffffffffffffffffffffff1602179055507f9736aeb40a8f30a5c076a9897428fdf7ec0e909c96dce63533664c9b5c835da6826040516116c89190611bb1565b60405180910390a160019050919050565b6000600860009054906101000a900473ffffffffffffffffffffffffffffffffffffffff1673ffffffffffffffffffffffffffffffffffffffff163373ffffffffffffffffffffffffffffffffffffffff161461176b576040517f08c379a0000000000000000000000000000000000000000000000000000000008152600401611762906121cc565b60405180910390fd5b8160038190555060019050919050565b600073ffffffffffffffffffffffffffffffffffffffff168273ffffffffffffffffffffffffffffffffffffffff16036117ea576040517f08c379a00000000000000000000000000000000000000000000000000000000081526004016117e190612336565b60405180910390fd5b806003546117f89190611f4e565b600381905550806000808473ffffffffffffffffffffffffffffffffffffffff1673ffffffffffffffffffffffffffffffffffffffff168152602001908152602001600020546118489190611f4e565b6000808473ffffffffffffffffffffffffffffffffffffffff1673ffffffffffffffffffffffffffffffffffffffff168152602001908152602001600020819055507fddf252ad1be2c89b69c2b068fc378daa952ba7f163c4a11628f55a4df523b3ef600083836040516118be93929190611cfe565b60405180910390a15050565b600081519050919050565b600082825260208201905092915050565b60005b838110156119045780820151818401526020810190506118e9565b83811115611913576000848401525b50505050565b6000601f19601f8301169050919050565b6000611935826118ca565b61193f81856118d5565b935061194f8185602086016118e6565b61195881611919565b840191505092915050565b6000602082019050818103600083015261197d818461192a565b905092915050565b600080fd5b600073ffffffffffffffffffffffffffffffffffffffff82169050919050565b60006119b58261198a565b9050919050565b6119c5816119aa565b81146119d057600080fd5b50565b6000813590506119e2816119bc565b92915050565b6000819050919050565b6119fb816119e8565b8114611a0657600080fd5b50565b600081359050611a18816119f2565b92915050565b60008060408385031215611a3557611a34611985565b5b6000611a43858286016119d3565b9250506020611a5485828601611a09565b9150509250929050565b60008115159050919050565b611a7381611a5e565b82525050565b6000602082019050611a8e6000830184611a6a565b92915050565b611a9d816119e8565b82525050565b6000602082019050611ab86000830184611a94565b92915050565b600080600060608486031215611ad757611ad6611985565b5b6000611ae5868287016119d3565b9350506020611af6868287016119d3565b9250506040611b0786828701611a09565b9150509250925092565b600060ff82169050919050565b611b2781611b11565b82525050565b6000602082019050611b426000830184611b1e565b92915050565b600060208284031215611b5e57611b5d611985565b5b6000611b6c84828501611a09565b91505092915050565b600060208284031215611b8b57611b8a611985565b5b6000611b99848285016119d3565b91505092915050565b611bab816119aa565b82525050565b6000602082019050611bc66000830184611ba2565b92915050565b60008060408385031215611be357611be2611985565b5b6000611bf1858286016119d3565b9250506020611c02858286016119d3565b9150509250929050565b7f4e487b7100000000000000000000000000000000000000000000000000000000600052602260045260246000fd5b60006002820490506001821680611c5357607f821691505b602082108103611c6657611c65611c0c565b5b50919050565b7f596f752063616e27742073657420616c6c6f77616e636520746f20616464726560008201527f7373203000000000000000000000000000000000000000000000000000000000602082015250565b6000611cc86024836118d5565b9150611cd382611c6c565b604082019050919050565b60006020820190508181036000830152611cf781611cbb565b9050919050565b6000606082019050611d136000830186611ba2565b611d206020830185611ba2565b611d2d6040830184611a94565b949350505050565b7f5461726765742061646472657320646f65736e2774206861766520656e6f756760008201527f682062616c616e63650000000000000000000000000000000000000000000000602082015250565b6000611d916029836118d5565b9150611d9c82611d35565b604082019050919050565b60006020820190508181036000830152611dc081611d84565b9050919050565b7f596f7520617265206e6f7420616c6c6f77656420746f207472616e736665722060008201527f7468697320616d6f756e74206f6620746f6b656e730000000000000000000000602082015250565b6000611e236035836118d5565b9150611e2e82611dc7565b604082019050919050565b60006020820190508181036000830152611e5281611e16565b9050919050565b7f596f752063616e27742073656e6420746f6b656e7320746f206164647265737360008201527f2030000000000000000000000000000000000000000000000000000000000000602082015250565b6000611eb56022836118d5565b9150611ec082611e59565b604082019050919050565b60006020820190508181036000830152611ee481611ea8565b9050919050565b7f4e487b7100000000000000000000000000000000000000000000000000000000600052601160045260246000fd5b6000611f25826119e8565b9150611f30836119e8565b925082821015611f4357611f42611eeb565b5b828203905092915050565b6000611f59826119e8565b9150611f64836119e8565b9250827fffffffffffffffffffffffffffffffffffffffffffffffffffffffffffffffff03821115611f9957611f98611eeb565b5b828201905092915050565b7f596f752063616e27742064656c656761746520616c6c6f77616e636520746f2060008201527f6164647265737320300000000000000000000000000000000000000000000000602082015250565b60006120006029836118d5565b915061200b82611fa4565b604082019050919050565b6000602082019050818103600083015261202f81611ff3565b9050919050565b7f596f7520646f6e27742068617665207065726d697373696f6e20746f2061636360008201527f65737320746869732066756e6374696f6e000000000000000000000000000000602082015250565b60006120926031836118d5565b915061209d82612036565b604082019050919050565b600060208201905081810360008301526120c181612085565b9050919050565b7f546865206d617820737570706c792068617320616c7265616479206265206d6560008201527f6574000000000000000000000000000000000000000000000000000000000000602082015250565b60006121246022836118d5565b915061212f826120c8565b604082019050919050565b6000602082019050818103600083015261215381612117565b9050919050565b7f4f6e6c79206f776e65722069732061626c6520746f206163636573732074686960008201527f732066756e6374696f6e00000000000000000000000000000000000000000000602082015250565b60006121b6602a836118d5565b91506121c18261215a565b604082019050919050565b600060208201905081810360008301526121e5816121a9565b9050919050565b7f4e6f7420656e6f7567682062616c616e63650000000000000000000000000000600082015250565b60006122226012836118d5565b915061222d826121ec565b602082019050919050565b6000602082019050818103600083015261225181612215565b9050919050565b7f596f752063616e2774206275726e20746f6b656e730000000000000000000000600082015250565b600061228e6015836118d5565b915061229982612258565b602082019050919050565b600060208201905081810360008301526122bd81612281565b9050919050565b7f596f752063616e2774206d696e7420746f6b656e7320746f206164647265737360008201527f2030000000000000000000000000000000000000000000000000000000000000602082015250565b60006123206022836118d5565b915061232b826122c4565b604082019050919050565b6000602082019050818103600083015261234f81612313565b905091905056fea26469706673582212202acf04e7dddae767c92928217575b4cd42083cc30daa0baefa4626b869a8a5fe64736f6c634300080f0033",
  "immutableReferences": {},
  "source": "//SPDX-License-Identifier: unlicensed\r\npragma solidity ^0.8.15;\r\n\r\ncontract Token {\r\n\r\n    constructor(string memory name_, string memory symbol_) public {\r\n        _name = name_;\r\n        _symbol = symbol_;\r\n        _decimals = 18;\r\n        _owner = msg.sender;\r\n        admin[msg.sender] = true;\r\n    }\r\n\r\n    mapping(address => uint256) private _balances;\r\n    mapping(address => mapping(address => uint)) _allowed;\r\n    mapping(address => bool) admin;\r\n    uint _totalSupply;\r\n    string _name;\r\n    string _symbol;\r\n    uint8 _decimals;\r\n    uint _maxSupply;\r\n    address _owner;\r\n\r\n\r\n    event Transfer(address, address, uint);\r\n    event Approval(address, address, uint);\r\n    event AdminSet(address);\r\n    event OwnershipTransfered(address);\r\n\r\n    modifier onlyOwner {\r\n        require(msg.sender == _owner, \"Only owner is able to access this function\");\r\n        _;\r\n    }\r\n\r\n    modifier onlyAdmin {\r\n        require(msg.sender == _owner || admin[msg.sender] == true, \"You don't have permission to access this function\");\r\n        _;\r\n    }\r\n\r\n    /**\r\n    * @dev return the name of the token\r\n    * @return the name as string\r\n     */\r\n\r\n    function name() public view returns (string memory){\r\n        return _name;\r\n    }\r\n\r\n        /**\r\n    * @dev return the symbol of the token\r\n    * @return the symbol as string\r\n     */\r\n\r\n    function symbol() public view returns (string memory){\r\n        return _symbol;\r\n    }\r\n\r\n        /**\r\n    * @dev return the decimals of the token\r\n    * @return the decimals as uint\r\n     */\r\n\r\n    function decimals() public view returns (uint8){\r\n        return _decimals;\r\n    }\r\n\r\n    /**\r\n    * @dev function to check the total supply\r\n    * @return uint representing the total supply\r\n    */\r\n\r\n    function totalSupply() public view returns(uint){\r\n        return _totalSupply;\r\n    }\r\n\r\n    /**\r\n    * @dev function to return the address of the _owner\r\n     */\r\n\r\n    function getOwner() external view returns(address){\r\n        return _owner;\r\n    }\r\n\r\n    /**\r\n    * @dev function to get the remaining tokens\r\n    * @return the result of the maximum supply minus the total supply as uint\r\n     */\r\n\r\n    function remainingTokens() external view returns(uint){\r\n        uint result = _maxSupply - _totalSupply;\r\n        return result;\r\n    }    \r\n\r\n    /**\r\n    * @dev set an address as admin\r\n    * @param _address address that you wanna turn admin\r\n     */\r\n    \r\n    function setAdmin(address _address) external onlyOwner returns(bool){\r\n        admin[_address] = true;\r\n        emit AdminSet(_address);\r\n        return true;\r\n    }\r\n\r\n    /**\r\n    * @dev sets the maximum supply\r\n    * @param amount amount of the maximum supply\r\n    */\r\n\r\n    function setMaxSupply(uint amount) external onlyOwner returns(bool){\r\n        _maxSupply = amount;\r\n        return true;\r\n    }\r\n\r\n    /**\r\n    * @dev transfer ownership\r\n    * @param _address address that the owner wants to turn into the new owner.\r\n     */\r\n\r\n    function transferOwnership(address _address) external onlyOwner returns(bool){\r\n        _owner = _address;\r\n        emit OwnershipTransfered(_address);\r\n        return true;\r\n    }\r\n\r\n    /** \r\n    * @dev function that return the balance of an specific address\r\n    * @param owner the address that you want to know the balance\r\n     */\r\n\r\n    function balanceOf(address owner) public view returns(uint){\r\n        return _balances[owner];\r\n    }\r\n\r\n    /**\r\n    * @dev set the total supply\r\n     */\r\n\r\n    function setTotalSupply(uint amount) external onlyOwner returns(bool){\r\n        _totalSupply = amount;\r\n        return true;\r\n    }\r\n\r\n    /**\r\n    * @dev allow owner to mint to specific addresses\r\n    * @param to address where the tokens should go\r\n    * @param amount number of tokens that you want to send\r\n    */\r\n\r\n    function ownerMint(address to, uint amount) external onlyAdmin returns(bool){\r\n        require(_totalSupply < _maxSupply, \"The max supply has already be meet\");\r\n        _mint(to, amount);\r\n        emit Transfer(address(0), to, amount);\r\n        return true;\r\n    }\r\n\r\n    /**\r\n    * @dev return the amount the the owner has authorized a third party address to spend\r\n    * @param owner owner of the token\r\n    * @param spender address responsible for spending in behalf of the owner\r\n    * @return uint for the allowance\r\n     */\r\n\r\n    function allowance(address owner, address spender) public view returns(uint){\r\n        return _allowed[owner][spender];\r\n    }\r\n\r\n    /**\r\n    * @dev transfer tokens from the sender to an specific address\r\n    * @param to address where the owner wants to send tokens\r\n    * @param value value in which the owner wants to transfer in wei \r\n     */\r\n\r\n    function transfer(address to, uint value) public returns (bool) {\r\n        require(value <= _balances[msg.sender], \"Not enough balance\");\r\n        require(to != address(0), \"You can't burn tokens\");\r\n        //transfer fees go here!\r\n        _balances[msg.sender] = _balances[msg.sender] - value;\r\n        _balances[to] = _balances[to] + value;\r\n        emit Transfer(msg.sender, to, value);\r\n        return true;\r\n    }\r\n\r\n    /**\r\n    * @dev approve an address to spend tokens on behalf of owner\r\n    * @param spender address to spend in behalf of owner\r\n    * @param value amount of tokens to be authorized \r\n     */\r\n\r\n    function approve(address spender, uint value) public returns (bool) {\r\n        require(spender != address(0), \"You can't set allowance to address 0\");\r\n        _allowed[msg.sender][spender] = value;\r\n        emit Approval(msg.sender, spender, value);\r\n        return true;\r\n    }\r\n\r\n    /**\r\n    * @dev spend tokens in behalf of owner\r\n    * @param from owner of the tokens\r\n    * @param to address where the tokens will be sent\r\n    * @param value amount of tokens to be spended\r\n     */\r\n\r\n    function transferFrom(address from, address to, uint value) public returns (bool) {\r\n        require(value <= _balances[from], \"Target addres doesn't have enough balance\");\r\n        require(value <= _allowed[from][msg.sender], \"You are not allowed to transfer this amount of tokens\");\r\n        require(to != address(0), \"You can't send tokens to address 0\");\r\n\r\n        _balances[from] = _balances[from] - value;\r\n        _balances[to] = _balances[to] + value;\r\n        _allowed[from][msg.sender] = _allowed[from][msg.sender] - value;\r\n        emit Transfer(from, to, value);\r\n        return true;\r\n    }\r\n\r\n    /**\r\n    * @dev uprise the allowance of an address to spend in behalf of other\r\n    * @param addedValue amount of tokens to be uprised on allowance\r\n     */\r\n\r\n    function increaseAllowance(address spender, uint addedValue) public returns (bool) {\r\n        require(spender != address(0), \"You can't delegate allowance to address 0\");\r\n        _allowed[msg.sender][spender] = (_allowed[msg.sender][spender] + addedValue);\r\n        emit Approval(msg.sender, spender, _allowed[msg.sender][spender]);\r\n        return true;\r\n    }\r\n\r\n    /**\r\n    * @dev downgrade the allowance for an address to spend in behalf of other\r\n    * @param spender address to spend tokens in behalf of owner\r\n    * @param subtractedValue value to be downgraded from the spender allowance\r\n     */\r\n\r\n    function decreaseAllowance(address spender, uint subtractedValue) public returns (bool) {\r\n        require(spender != address(0), \"You can't delegate allowance to address 0\");\r\n        _allowed[msg.sender][spender] = (_allowed[msg.sender][spender] - subtractedValue);\r\n        emit Approval(msg.sender, spender, _allowed[msg.sender][spender]);\r\n        return true;\r\n    }\r\n\r\n    /**\r\n    * @dev internal function to mint tokens\r\n    * @param account where the new tokens will be minted\r\n    * @param amount number of tokens that will be minted\r\n     */\r\n\r\n    function _mint(address account, uint amount) internal {\r\n        require(account != address(0), \"You can't mint tokens to address 0\");\r\n        _totalSupply = _totalSupply + amount;\r\n        _balances[account] = _balances[account] + amount;\r\n        emit Transfer(address(0), account, amount);\r\n    }\r\n\r\n    /**\r\n    * @dev internal function to burn tokens\r\n    * @param account where the tokens will be burned from\r\n    * @param amount number of tokens to be burned\r\n     */\r\n\r\n    function _burn(address account, uint amount) internal {\r\n        require(account != address(0));\r\n        require(amount <= _balances[account], \"Not enough balance to burn\");\r\n        _totalSupply = _totalSupply - amount;\r\n        _balances[account] = _balances[account] - amount;\r\n        emit Transfer(account, address(0), amount);\r\n    }\r\n\r\n    /**\r\n    * @dev internal\r\n     */\r\n\r\n    function _burnFrom(address account, uint amount) internal {\r\n        require(amount <= _allowed[account][msg.sender], \"You are not allowed to burn this amount from the address\");\r\n        _allowed[account][msg.sender] = _allowed[account][msg.sender] - amount;\r\n        _burn(account, amount);\r\n    }\r\n}",
  "sourcePath": "C:\\Users\\rodri\\web3_projects\\ganache-projects\\blocos\\contracts\\Token.sol",
  "compiler": {
    "name": "solc",
    "version": "0.8.15+commit.e14f2714.Emscripten.clang"
  },
  "schemaVersion": "3.4.7",
  "updatedAt": "2022-07-11T21:16:48.845Z",
  "devdoc": {
    "kind": "dev",
    "methods": {
      "allowance(address,address)": {
        "details": "return the amount the the owner has authorized a third party address to spend",
        "params": {
          "owner": "owner of the token",
          "spender": "address responsible for spending in behalf of the owner"
        },
        "returns": {
          "_0": "uint for the allowance"
        }
      },
      "approve(address,uint256)": {
        "details": "approve an address to spend tokens on behalf of owner",
        "params": {
          "spender": "address to spend in behalf of owner",
          "value": "amount of tokens to be authorized "
        }
      },
      "balanceOf(address)": {
        "details": "function that return the balance of an specific address",
        "params": {
          "owner": "the address that you want to know the balance"
        }
      },
      "decimals()": {
        "details": "return the decimals of the token",
        "returns": {
          "_0": "the decimals as uint"
        }
      },
      "decreaseAllowance(address,uint256)": {
        "details": "downgrade the allowance for an address to spend in behalf of other",
        "params": {
          "spender": "address to spend tokens in behalf of owner",
          "subtractedValue": "value to be downgraded from the spender allowance"
        }
      },
      "getOwner()": {
        "details": "function to return the address of the _owner"
      },
      "increaseAllowance(address,uint256)": {
        "details": "uprise the allowance of an address to spend in behalf of other",
        "params": {
          "addedValue": "amount of tokens to be uprised on allowance"
        }
      },
      "name()": {
        "details": "return the name of the token",
        "returns": {
          "_0": "the name as string"
        }
      },
      "ownerMint(address,uint256)": {
        "details": "allow owner to mint to specific addresses",
        "params": {
          "amount": "number of tokens that you want to send",
          "to": "address where the tokens should go"
        }
      },
      "remainingTokens()": {
        "details": "function to get the remaining tokens",
        "returns": {
          "_0": "the result of the maximum supply minus the total supply as uint"
        }
      },
      "setAdmin(address)": {
        "details": "set an address as admin",
        "params": {
          "_address": "address that you wanna turn admin"
        }
      },
      "setMaxSupply(uint256)": {
        "details": "sets the maximum supply",
        "params": {
          "amount": "amount of the maximum supply"
        }
      },
      "setTotalSupply(uint256)": {
        "details": "set the total supply"
      },
      "symbol()": {
        "details": "return the symbol of the token",
        "returns": {
          "_0": "the symbol as string"
        }
      },
      "totalSupply()": {
        "details": "function to check the total supply",
        "returns": {
          "_0": "uint representing the total supply"
        }
      },
      "transfer(address,uint256)": {
        "details": "transfer tokens from the sender to an specific address",
        "params": {
          "to": "address where the owner wants to send tokens",
          "value": "value in which the owner wants to transfer in wei "
        }
      },
      "transferFrom(address,address,uint256)": {
        "details": "spend tokens in behalf of owner",
        "params": {
          "from": "owner of the tokens",
          "to": "address where the tokens will be sent",
          "value": "amount of tokens to be spended"
        }
      },
      "transferOwnership(address)": {
        "details": "transfer ownership",
        "params": {
          "_address": "address that the owner wants to turn into the new owner."
        }
      }
    },
    "version": 1
  },
  "userdoc": {
    "kind": "user",
    "methods": {},
    "version": 1
  }
}