{
  "contractName": "Token",
  "abi": [
    {
      "anonymous": false,
      "inputs": [
        {
          "indexed": false,
          "internalType": "address",
          "name": "",
          "type": "address"
        }
      ],
      "name": "AdminSet",
      "type": "event"
    },
    {
      "anonymous": false,
      "inputs": [
        {
          "indexed": false,
          "internalType": "address",
          "name": "",
          "type": "address"
        },
        {
          "indexed": false,
          "internalType": "address",
          "name": "",
          "type": "address"
        },
        {
          "indexed": false,
          "internalType": "uint256",
          "name": "",
          "type": "uint256"
        }
      ],
      "name": "Approval",
      "type": "event"
    },
    {
      "anonymous": false,
      "inputs": [
        {
          "indexed": false,
          "internalType": "uint8",
          "name": "version",
          "type": "uint8"
        }
      ],
      "name": "Initialized",
      "type": "event"
    },
    {
      "anonymous": false,
      "inputs": [
        {
          "indexed": false,
          "internalType": "address",
          "name": "",
          "type": "address"
        }
      ],
      "name": "OwnershipTransfered",
      "type": "event"
    },
    {
      "anonymous": false,
      "inputs": [
        {
          "indexed": false,
          "internalType": "address",
          "name": "",
          "type": "address"
        },
        {
          "indexed": false,
          "internalType": "address",
          "name": "",
          "type": "address"
        },
        {
          "indexed": false,
          "internalType": "uint256",
          "name": "",
          "type": "uint256"
        }
      ],
      "name": "Transfer",
      "type": "event"
    },
    {
      "inputs": [],
      "name": "initialize",
      "outputs": [],
      "stateMutability": "nonpayable",
      "type": "function"
    },
    {
      "inputs": [],
      "name": "name",
      "outputs": [
        {
          "internalType": "string",
          "name": "",
          "type": "string"
        }
      ],
      "stateMutability": "view",
      "type": "function",
      "constant": true
    },
    {
      "inputs": [],
      "name": "symbol",
      "outputs": [
        {
          "internalType": "string",
          "name": "",
          "type": "string"
        }
      ],
      "stateMutability": "view",
      "type": "function",
      "constant": true
    },
    {
      "inputs": [],
      "name": "decimals",
      "outputs": [
        {
          "internalType": "uint8",
          "name": "",
          "type": "uint8"
        }
      ],
      "stateMutability": "view",
      "type": "function",
      "constant": true
    },
    {
      "inputs": [],
      "name": "totalSupply",
      "outputs": [
        {
          "internalType": "uint256",
          "name": "",
          "type": "uint256"
        }
      ],
      "stateMutability": "view",
      "type": "function",
      "constant": true
    },
    {
      "inputs": [],
      "name": "getOwner",
      "outputs": [
        {
          "internalType": "address",
          "name": "",
          "type": "address"
        }
      ],
      "stateMutability": "view",
      "type": "function",
      "constant": true
    },
    {
      "inputs": [],
      "name": "remainingTokens",
      "outputs": [
        {
          "internalType": "uint256",
          "name": "",
          "type": "uint256"
        }
      ],
      "stateMutability": "view",
      "type": "function",
      "constant": true
    },
    {
      "inputs": [
        {
          "internalType": "address",
          "name": "_address",
          "type": "address"
        }
      ],
      "name": "setAdmin",
      "outputs": [
        {
          "internalType": "bool",
          "name": "",
          "type": "bool"
        }
      ],
      "stateMutability": "nonpayable",
      "type": "function"
    },
    {
      "inputs": [
        {
          "internalType": "uint256",
          "name": "amount",
          "type": "uint256"
        }
      ],
      "name": "setMaxSupply",
      "outputs": [
        {
          "internalType": "bool",
          "name": "",
          "type": "bool"
        }
      ],
      "stateMutability": "nonpayable",
      "type": "function"
    },
    {
      "inputs": [
        {
          "internalType": "address",
          "name": "_address",
          "type": "address"
        }
      ],
      "name": "transferOwnership",
      "outputs": [
        {
          "internalType": "bool",
          "name": "",
          "type": "bool"
        }
      ],
      "stateMutability": "nonpayable",
      "type": "function"
    },
    {
      "inputs": [
        {
          "internalType": "address",
          "name": "owner",
          "type": "address"
        }
      ],
      "name": "balanceOf",
      "outputs": [
        {
          "internalType": "uint256",
          "name": "",
          "type": "uint256"
        }
      ],
      "stateMutability": "view",
      "type": "function",
      "constant": true
    },
    {
      "inputs": [
        {
          "internalType": "uint256",
          "name": "amount",
          "type": "uint256"
        }
      ],
      "name": "setTotalSupply",
      "outputs": [
        {
          "internalType": "bool",
          "name": "",
          "type": "bool"
        }
      ],
      "stateMutability": "nonpayable",
      "type": "function"
    },
    {
      "inputs": [
        {
          "internalType": "address",
          "name": "to",
          "type": "address"
        },
        {
          "internalType": "uint256",
          "name": "amount",
          "type": "uint256"
        }
      ],
      "name": "ownerMint",
      "outputs": [
        {
          "internalType": "bool",
          "name": "",
          "type": "bool"
        }
      ],
      "stateMutability": "nonpayable",
      "type": "function"
    },
    {
      "inputs": [
        {
          "internalType": "address",
          "name": "owner",
          "type": "address"
        },
        {
          "internalType": "address",
          "name": "spender",
          "type": "address"
        }
      ],
      "name": "allowance",
      "outputs": [
        {
          "internalType": "uint256",
          "name": "",
          "type": "uint256"
        }
      ],
      "stateMutability": "view",
      "type": "function",
      "constant": true
    },
    {
      "inputs": [
        {
          "internalType": "address",
          "name": "to",
          "type": "address"
        },
        {
          "internalType": "uint256",
          "name": "value",
          "type": "uint256"
        }
      ],
      "name": "transfer",
      "outputs": [
        {
          "internalType": "bool",
          "name": "",
          "type": "bool"
        }
      ],
      "stateMutability": "nonpayable",
      "type": "function"
    },
    {
      "inputs": [
        {
          "internalType": "address",
          "name": "spender",
          "type": "address"
        },
        {
          "internalType": "uint256",
          "name": "value",
          "type": "uint256"
        }
      ],
      "name": "approve",
      "outputs": [
        {
          "internalType": "bool",
          "name": "",
          "type": "bool"
        }
      ],
      "stateMutability": "nonpayable",
      "type": "function"
    },
    {
      "inputs": [
        {
          "internalType": "address",
          "name": "from",
          "type": "address"
        },
        {
          "internalType": "address",
          "name": "to",
          "type": "address"
        },
        {
          "internalType": "uint256",
          "name": "value",
          "type": "uint256"
        }
      ],
      "name": "transferFrom",
      "outputs": [
        {
          "internalType": "bool",
          "name": "",
          "type": "bool"
        }
      ],
      "stateMutability": "nonpayable",
      "type": "function"
    },
    {
      "inputs": [
        {
          "internalType": "address",
          "name": "spender",
          "type": "address"
        },
        {
          "internalType": "uint256",
          "name": "addedValue",
          "type": "uint256"
        }
      ],
      "name": "increaseAllowance",
      "outputs": [
        {
          "internalType": "bool",
          "name": "",
          "type": "bool"
        }
      ],
      "stateMutability": "nonpayable",
      "type": "function"
    },
    {
      "inputs": [
        {
          "internalType": "address",
          "name": "spender",
          "type": "address"
        },
        {
          "internalType": "uint256",
          "name": "subtractedValue",
          "type": "uint256"
        }
      ],
      "name": "decreaseAllowance",
      "outputs": [
        {
          "internalType": "bool",
          "name": "",
          "type": "bool"
        }
      ],
      "stateMutability": "nonpayable",
      "type": "function"
    }
  ],
  "bytecode": "0x608060405234801561001057600080fd5b506129db806100206000396000f3fe608060405234801561001057600080fd5b50600436106101215760003560e01c806370a08231116100ad578063a9059cbb11610071578063a9059cbb14610346578063bf58390314610376578063dd62ed3e14610394578063f2fde38b146103c4578063f7ea7a3d146103f457610121565b806370a08231146102a05780638129fc1c146102d0578063893d20e8146102da57806395d89b41146102f8578063a457c2d71461031657610121565b8063313ce567116100f4578063313ce567146101c257806339509351146101e0578063484b973c146102105780636f8b44b014610240578063704b6c021461027057610121565b806306fdde0314610126578063095ea7b31461014457806318160ddd1461017457806323b872dd14610192575b600080fd5b61012e610424565b60405161013b9190611c1d565b60405180910390f35b61015e60048036038101906101599190611cd8565b6104b6565b60405161016b9190611d33565b60405180910390f35b61017c6105ec565b6040516101899190611d5d565b60405180910390f35b6101ac60048036038101906101a79190611d78565b6105f6565b6040516101b99190611d33565b60405180910390f35b6101ca610a12565b6040516101d79190611de7565b60405180910390f35b6101fa60048036038101906101f59190611cd8565b610a29565b6040516102079190611d33565b60405180910390f35b61022a60048036038101906102259190611cd8565b610c62565b6040516102379190611d33565b60405180910390f35b61025a60048036038101906102559190611e02565b610de5565b6040516102679190611d33565b60405180910390f35b61028a60048036038101906102859190611e2f565b610e87565b6040516102979190611d33565b60405180910390f35b6102ba60048036038101906102b59190611e2f565b610fb1565b6040516102c79190611d5d565b60405180910390f35b6102d8610ffa565b005b6102e261126f565b6040516102ef9190611e6b565b60405180910390f35b610300611299565b60405161030d9190611c1d565b60405180910390f35b610330600480360381019061032b9190611cd8565b61132b565b60405161033d9190611d33565b60405180910390f35b610360600480360381019061035b9190611cd8565b611564565b60405161036d9190611d33565b60405180910390f35b61037e6117b8565b60405161038b9190611d5d565b60405180910390f35b6103ae60048036038101906103a99190611e86565b6117d4565b6040516103bb9190611d5d565b60405180910390f35b6103de60048036038101906103d99190611e2f565b61185b565b6040516103eb9190611d33565b60405180910390f35b61040e60048036038101906104099190611e02565b61196e565b60405161041b9190611d33565b60405180910390f35b60606005805461043390611ef5565b80601f016020809104026020016040519081016040528092919081815260200182805461045f90611ef5565b80156104ac5780601f10610481576101008083540402835291602001916104ac565b820191906000526020600020905b81548152906001019060200180831161048f57829003601f168201915b5050505050905090565b60008073ffffffffffffffffffffffffffffffffffffffff168373ffffffffffffffffffffffffffffffffffffffff1603610526576040517f08c379a000000000000000000000000000000000000000000000000000000000815260040161051d90611f98565b60405180910390fd5b81600260003373ffffffffffffffffffffffffffffffffffffffff1673ffffffffffffffffffffffffffffffffffffffff16815260200190815260200160002060008573ffffffffffffffffffffffffffffffffffffffff1673ffffffffffffffffffffffffffffffffffffffff168152602001908152602001600020819055507f8c5be1e5ebec7d5bd14f71427d1e84f3dd0314c0f7b2291e5b200ac8c7c3b9253384846040516105da93929190611fb8565b60405180910390a16001905092915050565b6000600454905090565b6000600160008573ffffffffffffffffffffffffffffffffffffffff1673ffffffffffffffffffffffffffffffffffffffff1681526020019081526020016000205482111561067a576040517f08c379a000000000000000000000000000000000000000000000000000000000815260040161067190612061565b60405180910390fd5b600260008573ffffffffffffffffffffffffffffffffffffffff1673ffffffffffffffffffffffffffffffffffffffff16815260200190815260200160002060003373ffffffffffffffffffffffffffffffffffffffff1673ffffffffffffffffffffffffffffffffffffffff16815260200190815260200160002054821115610739576040517f08c379a0000000000000000000000000000000000000000000000000000000008152600401610730906120f3565b60405180910390fd5b600073ffffffffffffffffffffffffffffffffffffffff168373ffffffffffffffffffffffffffffffffffffffff16036107a8576040517f08c379a000000000000000000000000000000000000000000000000000000000815260040161079f90612185565b60405180910390fd5b81600160008673ffffffffffffffffffffffffffffffffffffffff1673ffffffffffffffffffffffffffffffffffffffff168152602001908152602001600020546107f391906121d4565b600160008673ffffffffffffffffffffffffffffffffffffffff1673ffffffffffffffffffffffffffffffffffffffff1681526020019081526020016000208190555081600160008573ffffffffffffffffffffffffffffffffffffffff1673ffffffffffffffffffffffffffffffffffffffff168152602001908152602001600020546108819190612208565b600160008573ffffffffffffffffffffffffffffffffffffffff1673ffffffffffffffffffffffffffffffffffffffff1681526020019081526020016000208190555081600260008673ffffffffffffffffffffffffffffffffffffffff1673ffffffffffffffffffffffffffffffffffffffff16815260200190815260200160002060003373ffffffffffffffffffffffffffffffffffffffff1673ffffffffffffffffffffffffffffffffffffffff1681526020019081526020016000205461094c91906121d4565b600260008673ffffffffffffffffffffffffffffffffffffffff1673ffffffffffffffffffffffffffffffffffffffff16815260200190815260200160002060003373ffffffffffffffffffffffffffffffffffffffff1673ffffffffffffffffffffffffffffffffffffffff168152602001908152602001600020819055507fddf252ad1be2c89b69c2b068fc378daa952ba7f163c4a11628f55a4df523b3ef8484846040516109ff93929190611fb8565b60405180910390a1600190509392505050565b6000600760009054906101000a900460ff16905090565b60008073ffffffffffffffffffffffffffffffffffffffff168373ffffffffffffffffffffffffffffffffffffffff1603610a99576040517f08c379a0000000000000000000000000000000000000000000000000000000008152600401610a90906122d0565b60405180910390fd5b81600260003373ffffffffffffffffffffffffffffffffffffffff1673ffffffffffffffffffffffffffffffffffffffff16815260200190815260200160002060008573ffffffffffffffffffffffffffffffffffffffff1673ffffffffffffffffffffffffffffffffffffffff16815260200190815260200160002054610b219190612208565b600260003373ffffffffffffffffffffffffffffffffffffffff1673ffffffffffffffffffffffffffffffffffffffff16815260200190815260200160002060008573ffffffffffffffffffffffffffffffffffffffff1673ffffffffffffffffffffffffffffffffffffffff168152602001908152602001600020819055507f8c5be1e5ebec7d5bd14f71427d1e84f3dd0314c0f7b2291e5b200ac8c7c3b9253384600260003373ffffffffffffffffffffffffffffffffffffffff1673ffffffffffffffffffffffffffffffffffffffff16815260200190815260200160002060008773ffffffffffffffffffffffffffffffffffffffff1673ffffffffffffffffffffffffffffffffffffffff16815260200190815260200160002054604051610c5093929190611fb8565b60405180910390a16001905092915050565b6000600960009054906101000a900473ffffffffffffffffffffffffffffffffffffffff1673ffffffffffffffffffffffffffffffffffffffff163373ffffffffffffffffffffffffffffffffffffffff161480610d10575060011515600360003373ffffffffffffffffffffffffffffffffffffffff1673ffffffffffffffffffffffffffffffffffffffff16815260200190815260200160002060009054906101000a900460ff161515145b610d4f576040517f08c379a0000000000000000000000000000000000000000000000000000000008152600401610d4690612362565b60405180910390fd5b60085460045410610d95576040517f08c379a0000000000000000000000000000000000000000000000000000000008152600401610d8c906123f4565b60405180910390fd5b610d9f8383611a10565b7fddf252ad1be2c89b69c2b068fc378daa952ba7f163c4a11628f55a4df523b3ef60008484604051610dd393929190611fb8565b60405180910390a16001905092915050565b6000600960009054906101000a900473ffffffffffffffffffffffffffffffffffffffff1673ffffffffffffffffffffffffffffffffffffffff163373ffffffffffffffffffffffffffffffffffffffff1614610e77576040517f08c379a0000000000000000000000000000000000000000000000000000000008152600401610e6e90612486565b60405180910390fd5b8160088190555060019050919050565b6000600960009054906101000a900473ffffffffffffffffffffffffffffffffffffffff1673ffffffffffffffffffffffffffffffffffffffff163373ffffffffffffffffffffffffffffffffffffffff1614610f19576040517f08c379a0000000000000000000000000000000000000000000000000000000008152600401610f1090612486565b60405180910390fd5b6001600360008473ffffffffffffffffffffffffffffffffffffffff1673ffffffffffffffffffffffffffffffffffffffff16815260200190815260200160002060006101000a81548160ff0219169083151502179055507f8fe72c3e0020beb3234e76ae6676fa576fbfcae600af1c4fea44784cf0db329c82604051610fa09190611e6b565b60405180910390a160019050919050565b6000600160008373ffffffffffffffffffffffffffffffffffffffff1673ffffffffffffffffffffffffffffffffffffffff168152602001908152602001600020549050919050565b60008060019054906101000a900460ff1615905080801561102b5750600160008054906101000a900460ff1660ff16105b80611058575061103a30611b61565b1580156110575750600160008054906101000a900460ff1660ff16145b5b611097576040517f08c379a000000000000000000000000000000000000000000000000000000000815260040161108e90612518565b60405180910390fd5b60016000806101000a81548160ff021916908360ff16021790555080156110d4576001600060016101000a81548160ff0219169083151502179055505b6040518060400160405280600681526020017f426c6f636f730000000000000000000000000000000000000000000000000000815250600590816111189190612713565b506040518060400160405280600381526020017f424c4300000000000000000000000000000000000000000000000000000000008152506006908161115d9190612713565b506012600760006101000a81548160ff021916908360ff16021790555033600960006101000a81548173ffffffffffffffffffffffffffffffffffffffff021916908373ffffffffffffffffffffffffffffffffffffffff1602179055506001600360003373ffffffffffffffffffffffffffffffffffffffff1673ffffffffffffffffffffffffffffffffffffffff16815260200190815260200160002060006101000a81548160ff021916908315150217905550801561126c5760008060016101000a81548160ff0219169083151502179055507f7f26b83ff96e1f2b6a682f133852f6798a09c465da95921460cefb384740249860016040516112639190612820565b60405180910390a15b50565b6000600960009054906101000a900473ffffffffffffffffffffffffffffffffffffffff16905090565b6060600680546112a890611ef5565b80601f01602080910402602001604051908101604052809291908181526020018280546112d490611ef5565b80156113215780601f106112f657610100808354040283529160200191611321565b820191906000526020600020905b81548152906001019060200180831161130457829003601f168201915b5050505050905090565b60008073ffffffffffffffffffffffffffffffffffffffff168373ffffffffffffffffffffffffffffffffffffffff160361139b576040517f08c379a0000000000000000000000000000000000000000000000000000000008152600401611392906122d0565b60405180910390fd5b81600260003373ffffffffffffffffffffffffffffffffffffffff1673ffffffffffffffffffffffffffffffffffffffff16815260200190815260200160002060008573ffffffffffffffffffffffffffffffffffffffff1673ffffffffffffffffffffffffffffffffffffffff1681526020019081526020016000205461142391906121d4565b600260003373ffffffffffffffffffffffffffffffffffffffff1673ffffffffffffffffffffffffffffffffffffffff16815260200190815260200160002060008573ffffffffffffffffffffffffffffffffffffffff1673ffffffffffffffffffffffffffffffffffffffff168152602001908152602001600020819055507f8c5be1e5ebec7d5bd14f71427d1e84f3dd0314c0f7b2291e5b200ac8c7c3b9253384600260003373ffffffffffffffffffffffffffffffffffffffff1673ffffffffffffffffffffffffffffffffffffffff16815260200190815260200160002060008773ffffffffffffffffffffffffffffffffffffffff1673ffffffffffffffffffffffffffffffffffffffff1681526020019081526020016000205460405161155293929190611fb8565b60405180910390a16001905092915050565b6000600160003373ffffffffffffffffffffffffffffffffffffffff1673ffffffffffffffffffffffffffffffffffffffff168152602001908152602001600020548211156115e8576040517f08c379a00000000000000000000000000000000000000000000000000000000081526004016115df90612887565b60405180910390fd5b600073ffffffffffffffffffffffffffffffffffffffff168373ffffffffffffffffffffffffffffffffffffffff1603611657576040517f08c379a000000000000000000000000000000000000000000000000000000000815260040161164e906128f3565b60405180910390fd5b81600160003373ffffffffffffffffffffffffffffffffffffffff1673ffffffffffffffffffffffffffffffffffffffff168152602001908152602001600020546116a291906121d4565b600160003373ffffffffffffffffffffffffffffffffffffffff1673ffffffffffffffffffffffffffffffffffffffff1681526020019081526020016000208190555081600160008573ffffffffffffffffffffffffffffffffffffffff1673ffffffffffffffffffffffffffffffffffffffff168152602001908152602001600020546117309190612208565b600160008573ffffffffffffffffffffffffffffffffffffffff1673ffffffffffffffffffffffffffffffffffffffff168152602001908152602001600020819055507fddf252ad1be2c89b69c2b068fc378daa952ba7f163c4a11628f55a4df523b3ef3384846040516117a693929190611fb8565b60405180910390a16001905092915050565b6000806004546008546117cb91906121d4565b90508091505090565b6000600260008473ffffffffffffffffffffffffffffffffffffffff1673ffffffffffffffffffffffffffffffffffffffff16815260200190815260200160002060008373ffffffffffffffffffffffffffffffffffffffff1673ffffffffffffffffffffffffffffffffffffffff16815260200190815260200160002054905092915050565b6000600960009054906101000a900473ffffffffffffffffffffffffffffffffffffffff1673ffffffffffffffffffffffffffffffffffffffff163373ffffffffffffffffffffffffffffffffffffffff16146118ed576040517f08c379a00000000000000000000000000000000000000000000000000000000081526004016118e490612486565b60405180910390fd5b81600960006101000a81548173ffffffffffffffffffffffffffffffffffffffff021916908373ffffffffffffffffffffffffffffffffffffffff1602179055507f9736aeb40a8f30a5c076a9897428fdf7ec0e909c96dce63533664c9b5c835da68260405161195d9190611e6b565b60405180910390a160019050919050565b6000600960009054906101000a900473ffffffffffffffffffffffffffffffffffffffff1673ffffffffffffffffffffffffffffffffffffffff163373ffffffffffffffffffffffffffffffffffffffff1614611a00576040517f08c379a00000000000000000000000000000000000000000000000000000000081526004016119f790612486565b60405180910390fd5b8160048190555060019050919050565b600073ffffffffffffffffffffffffffffffffffffffff168273ffffffffffffffffffffffffffffffffffffffff1603611a7f576040517f08c379a0000000000000000000000000000000000000000000000000000000008152600401611a7690612985565b60405180910390fd5b80600454611a8d9190612208565b60048190555080600160008473ffffffffffffffffffffffffffffffffffffffff1673ffffffffffffffffffffffffffffffffffffffff16815260200190815260200160002054611ade9190612208565b600160008473ffffffffffffffffffffffffffffffffffffffff1673ffffffffffffffffffffffffffffffffffffffff168152602001908152602001600020819055507fddf252ad1be2c89b69c2b068fc378daa952ba7f163c4a11628f55a4df523b3ef60008383604051611b5593929190611fb8565b60405180910390a15050565b6000808273ffffffffffffffffffffffffffffffffffffffff163b119050919050565b600081519050919050565b600082825260208201905092915050565b60005b83811015611bbe578082015181840152602081019050611ba3565b83811115611bcd576000848401525b50505050565b6000601f19601f8301169050919050565b6000611bef82611b84565b611bf98185611b8f565b9350611c09818560208601611ba0565b611c1281611bd3565b840191505092915050565b60006020820190508181036000830152611c378184611be4565b905092915050565b600080fd5b600073ffffffffffffffffffffffffffffffffffffffff82169050919050565b6000611c6f82611c44565b9050919050565b611c7f81611c64565b8114611c8a57600080fd5b50565b600081359050611c9c81611c76565b92915050565b6000819050919050565b611cb581611ca2565b8114611cc057600080fd5b50565b600081359050611cd281611cac565b92915050565b60008060408385031215611cef57611cee611c3f565b5b6000611cfd85828601611c8d565b9250506020611d0e85828601611cc3565b9150509250929050565b60008115159050919050565b611d2d81611d18565b82525050565b6000602082019050611d486000830184611d24565b92915050565b611d5781611ca2565b82525050565b6000602082019050611d726000830184611d4e565b92915050565b600080600060608486031215611d9157611d90611c3f565b5b6000611d9f86828701611c8d565b9350506020611db086828701611c8d565b9250506040611dc186828701611cc3565b9150509250925092565b600060ff82169050919050565b611de181611dcb565b82525050565b6000602082019050611dfc6000830184611dd8565b92915050565b600060208284031215611e1857611e17611c3f565b5b6000611e2684828501611cc3565b91505092915050565b600060208284031215611e4557611e44611c3f565b5b6000611e5384828501611c8d565b91505092915050565b611e6581611c64565b82525050565b6000602082019050611e806000830184611e5c565b92915050565b60008060408385031215611e9d57611e9c611c3f565b5b6000611eab85828601611c8d565b9250506020611ebc85828601611c8d565b9150509250929050565b7f4e487b7100000000000000000000000000000000000000000000000000000000600052602260045260246000fd5b60006002820490506001821680611f0d57607f821691505b602082108103611f2057611f1f611ec6565b5b50919050565b7f596f752063616e27742073657420616c6c6f77616e636520746f20616464726560008201527f7373203000000000000000000000000000000000000000000000000000000000602082015250565b6000611f82602483611b8f565b9150611f8d82611f26565b604082019050919050565b60006020820190508181036000830152611fb181611f75565b9050919050565b6000606082019050611fcd6000830186611e5c565b611fda6020830185611e5c565b611fe76040830184611d4e565b949350505050565b7f5461726765742061646472657320646f65736e2774206861766520656e6f756760008201527f682062616c616e63650000000000000000000000000000000000000000000000602082015250565b600061204b602983611b8f565b915061205682611fef565b604082019050919050565b6000602082019050818103600083015261207a8161203e565b9050919050565b7f596f7520617265206e6f7420616c6c6f77656420746f207472616e736665722060008201527f7468697320616d6f756e74206f6620746f6b656e730000000000000000000000602082015250565b60006120dd603583611b8f565b91506120e882612081565b604082019050919050565b6000602082019050818103600083015261210c816120d0565b9050919050565b7f596f752063616e27742073656e6420746f6b656e7320746f206164647265737360008201527f2030000000000000000000000000000000000000000000000000000000000000602082015250565b600061216f602283611b8f565b915061217a82612113565b604082019050919050565b6000602082019050818103600083015261219e81612162565b9050919050565b7f4e487b7100000000000000000000000000000000000000000000000000000000600052601160045260246000fd5b60006121df82611ca2565b91506121ea83611ca2565b9250828210156121fd576121fc6121a5565b5b828203905092915050565b600061221382611ca2565b915061221e83611ca2565b9250827fffffffffffffffffffffffffffffffffffffffffffffffffffffffffffffffff03821115612253576122526121a5565b5b828201905092915050565b7f596f752063616e27742064656c656761746520616c6c6f77616e636520746f2060008201527f6164647265737320300000000000000000000000000000000000000000000000602082015250565b60006122ba602983611b8f565b91506122c58261225e565b604082019050919050565b600060208201905081810360008301526122e9816122ad565b9050919050565b7f596f7520646f6e27742068617665207065726d697373696f6e20746f2061636360008201527f65737320746869732066756e6374696f6e000000000000000000000000000000602082015250565b600061234c603183611b8f565b9150612357826122f0565b604082019050919050565b6000602082019050818103600083015261237b8161233f565b9050919050565b7f546865206d617820737570706c792068617320616c7265616479206265206d6560008201527f6574000000000000000000000000000000000000000000000000000000000000602082015250565b60006123de602283611b8f565b91506123e982612382565b604082019050919050565b6000602082019050818103600083015261240d816123d1565b9050919050565b7f4f6e6c79206f776e65722069732061626c6520746f206163636573732074686960008201527f732066756e6374696f6e00000000000000000000000000000000000000000000602082015250565b6000612470602a83611b8f565b915061247b82612414565b604082019050919050565b6000602082019050818103600083015261249f81612463565b9050919050565b7f496e697469616c697a61626c653a20636f6e747261637420697320616c72656160008201527f647920696e697469616c697a6564000000000000000000000000000000000000602082015250565b6000612502602e83611b8f565b915061250d826124a6565b604082019050919050565b60006020820190508181036000830152612531816124f5565b9050919050565b7f4e487b7100000000000000000000000000000000000000000000000000000000600052604160045260246000fd5b60008190508160005260206000209050919050565b60006020601f8301049050919050565b600082821b905092915050565b6000600883026125c97fffffffffffffffffffffffffffffffffffffffffffffffffffffffffffffffff8261258c565b6125d3868361258c565b95508019841693508086168417925050509392505050565b6000819050919050565b600061261061260b61260684611ca2565b6125eb565b611ca2565b9050919050565b6000819050919050565b61262a836125f5565b61263e61263682612617565b848454612599565b825550505050565b600090565b612653612646565b61265e818484612621565b505050565b5b818110156126825761267760008261264b565b600181019050612664565b5050565b601f8211156126c75761269881612567565b6126a18461257c565b810160208510156126b0578190505b6126c46126bc8561257c565b830182612663565b50505b505050565b600082821c905092915050565b60006126ea600019846008026126cc565b1980831691505092915050565b600061270383836126d9565b9150826002028217905092915050565b61271c82611b84565b67ffffffffffffffff81111561273557612734612538565b5b61273f8254611ef5565b61274a828285612686565b600060209050601f83116001811461277d576000841561276b578287015190505b61277585826126f7565b8655506127dd565b601f19841661278b86612567565b60005b828110156127b35784890151825560018201915060208501945060208101905061278e565b868310156127d057848901516127cc601f8916826126d9565b8355505b6001600288020188555050505b505050505050565b6000819050919050565b600061280a612805612800846127e5565b6125eb565b611dcb565b9050919050565b61281a816127ef565b82525050565b60006020820190506128356000830184612811565b92915050565b7f4e6f7420656e6f7567682062616c616e63650000000000000000000000000000600082015250565b6000612871601283611b8f565b915061287c8261283b565b602082019050919050565b600060208201905081810360008301526128a081612864565b9050919050565b7f596f752063616e2774206275726e20746f6b656e730000000000000000000000600082015250565b60006128dd601583611b8f565b91506128e8826128a7565b602082019050919050565b6000602082019050818103600083015261290c816128d0565b9050919050565b7f596f752063616e2774206d696e7420746f6b656e7320746f206164647265737360008201527f2030000000000000000000000000000000000000000000000000000000000000602082015250565b600061296f602283611b8f565b915061297a82612913565b604082019050919050565b6000602082019050818103600083015261299e81612962565b905091905056fea2646970667358221220e49efdc776d2226f9f887e42c12761c9bde37385b36315a6a6b35a2a7836518d64736f6c634300080f0033",
  "immutableReferences": {},
  "source": "//SPDX-License-Identifier: unlicensed\r\npragma solidity ^0.8.15;\r\n\r\nimport \"@openzeppelin/contracts-upgradeable/proxy/utils/Initializable.sol\";\r\n\r\ncontract Token is Initializable {\r\n\r\n    function initialize() initializer public {\r\n        _name = \"Blocos\";\r\n        _symbol = \"BLC\";\r\n        _decimals = 18;\r\n        _owner = msg.sender;\r\n        admin[msg.sender] = true;\r\n    }\r\n\r\n    mapping(address => uint256) private _balances;\r\n    mapping(address => mapping(address => uint)) _allowed;\r\n    mapping(address => bool) admin;\r\n    uint _totalSupply;\r\n    string _name;\r\n    string _symbol;\r\n    uint8 _decimals;\r\n    uint _maxSupply;\r\n    address _owner;\r\n\r\n\r\n    event Transfer(address, address, uint);\r\n    event Approval(address, address, uint);\r\n    event AdminSet(address);\r\n    event OwnershipTransfered(address);\r\n\r\n    modifier onlyOwner {\r\n        require(msg.sender == _owner, \"Only owner is able to access this function\");\r\n        _;\r\n    }\r\n\r\n    modifier onlyAdmin {\r\n        require(msg.sender == _owner || admin[msg.sender] == true, \"You don't have permission to access this function\");\r\n        _;\r\n    }\r\n\r\n    /**\r\n    * @dev return the name of the token\r\n    * @return the name as string\r\n     */\r\n\r\n    function name() public view returns (string memory){\r\n        return _name;\r\n    }\r\n\r\n        /**\r\n    * @dev return the symbol of the token\r\n    * @return the symbol as string\r\n     */\r\n\r\n    function symbol() public view returns (string memory){\r\n        return _symbol;\r\n    }\r\n\r\n        /**\r\n    * @dev return the decimals of the token\r\n    * @return the decimals as uint\r\n     */\r\n\r\n    function decimals() public view returns (uint8){\r\n        return _decimals;\r\n    }\r\n\r\n    /**\r\n    * @dev function to check the total supply\r\n    * @return uint representing the total supply\r\n    */\r\n\r\n    function totalSupply() public view returns(uint){\r\n        return _totalSupply;\r\n    }\r\n\r\n    /**\r\n    * @dev function to return the address of the _owner\r\n     */\r\n\r\n    function getOwner() external view returns(address){\r\n        return _owner;\r\n    }\r\n\r\n    /**\r\n    * @dev function to get the remaining tokens\r\n    * @return the result of the maximum supply minus the total supply as uint\r\n     */\r\n\r\n    function remainingTokens() external view returns(uint){\r\n        uint result = _maxSupply - _totalSupply;\r\n        return result;\r\n    }    \r\n\r\n    /**\r\n    * @dev set an address as admin\r\n    * @param _address address that you wanna turn admin\r\n     */\r\n    \r\n    function setAdmin(address _address) external onlyOwner returns(bool){\r\n        admin[_address] = true;\r\n        emit AdminSet(_address);\r\n        return true;\r\n    }\r\n\r\n    /**\r\n    * @dev sets the maximum supply\r\n    * @param amount amount of the maximum supply\r\n    */\r\n\r\n    function setMaxSupply(uint amount) external onlyOwner returns(bool){\r\n        _maxSupply = amount;\r\n        return true;\r\n    }\r\n\r\n    /**\r\n    * @dev transfer ownership\r\n    * @param _address address that the owner wants to turn into the new owner.\r\n     */\r\n\r\n    function transferOwnership(address _address) external onlyOwner returns(bool){\r\n        _owner = _address;\r\n        emit OwnershipTransfered(_address);\r\n        return true;\r\n    }\r\n\r\n    /** \r\n    * @dev function that return the balance of an specific address\r\n    * @param owner the address that you want to know the balance\r\n     */\r\n\r\n    function balanceOf(address owner) public view returns(uint){\r\n        return _balances[owner];\r\n    }\r\n\r\n    /**\r\n    * @dev set the total supply\r\n     */\r\n\r\n    function setTotalSupply(uint amount) external onlyOwner returns(bool){\r\n        _totalSupply = amount;\r\n        return true;\r\n    }\r\n\r\n    /**\r\n    * @dev allow owner to mint to specific addresses\r\n    * @param to address where the tokens should go\r\n    * @param amount number of tokens that you want to send\r\n    */\r\n\r\n    function ownerMint(address to, uint amount) external onlyAdmin returns(bool){\r\n        require(_totalSupply < _maxSupply, \"The max supply has already be meet\");\r\n        _mint(to, amount);\r\n        emit Transfer(address(0), to, amount);\r\n        return true;\r\n    }\r\n\r\n    /**\r\n    * @dev return the amount the the owner has authorized a third party address to spend\r\n    * @param owner owner of the token\r\n    * @param spender address responsible for spending in behalf of the owner\r\n    * @return uint for the allowance\r\n     */\r\n\r\n    function allowance(address owner, address spender) public view returns(uint){\r\n        return _allowed[owner][spender];\r\n    }\r\n\r\n    /**\r\n    * @dev transfer tokens from the sender to an specific address\r\n    * @param to address where the owner wants to send tokens\r\n    * @param value value in which the owner wants to transfer in wei \r\n     */\r\n\r\n    function transfer(address to, uint value) public returns (bool) {\r\n        require(value <= _balances[msg.sender], \"Not enough balance\");\r\n        require(to != address(0), \"You can't burn tokens\");\r\n        //transfer fees go here!\r\n        _balances[msg.sender] = _balances[msg.sender] - value;\r\n        _balances[to] = _balances[to] + value;\r\n        emit Transfer(msg.sender, to, value);\r\n        return true;\r\n    }\r\n\r\n    /**\r\n    * @dev approve an address to spend tokens on behalf of owner\r\n    * @param spender address to spend in behalf of owner\r\n    * @param value amount of tokens to be authorized \r\n     */\r\n\r\n    function approve(address spender, uint value) public returns (bool) {\r\n        require(spender != address(0), \"You can't set allowance to address 0\");\r\n        _allowed[msg.sender][spender] = value;\r\n        emit Approval(msg.sender, spender, value);\r\n        return true;\r\n    }\r\n\r\n    /**\r\n    * @dev spend tokens in behalf of owner\r\n    * @param from owner of the tokens\r\n    * @param to address where the tokens will be sent\r\n    * @param value amount of tokens to be spended\r\n     */\r\n\r\n    function transferFrom(address from, address to, uint value) public returns (bool) {\r\n        require(value <= _balances[from], \"Target addres doesn't have enough balance\");\r\n        require(value <= _allowed[from][msg.sender], \"You are not allowed to transfer this amount of tokens\");\r\n        require(to != address(0), \"You can't send tokens to address 0\");\r\n\r\n        _balances[from] = _balances[from] - value;\r\n        _balances[to] = _balances[to] + value;\r\n        _allowed[from][msg.sender] = _allowed[from][msg.sender] - value;\r\n        emit Transfer(from, to, value);\r\n        return true;\r\n    }\r\n\r\n    /**\r\n    * @dev uprise the allowance of an address to spend in behalf of other\r\n    * @param addedValue amount of tokens to be uprised on allowance\r\n     */\r\n\r\n    function increaseAllowance(address spender, uint addedValue) public returns (bool) {\r\n        require(spender != address(0), \"You can't delegate allowance to address 0\");\r\n        _allowed[msg.sender][spender] = (_allowed[msg.sender][spender] + addedValue);\r\n        emit Approval(msg.sender, spender, _allowed[msg.sender][spender]);\r\n        return true;\r\n    }\r\n\r\n    /**\r\n    * @dev downgrade the allowance for an address to spend in behalf of other\r\n    * @param spender address to spend tokens in behalf of owner\r\n    * @param subtractedValue value to be downgraded from the spender allowance\r\n     */\r\n\r\n    function decreaseAllowance(address spender, uint subtractedValue) public returns (bool) {\r\n        require(spender != address(0), \"You can't delegate allowance to address 0\");\r\n        _allowed[msg.sender][spender] = (_allowed[msg.sender][spender] - subtractedValue);\r\n        emit Approval(msg.sender, spender, _allowed[msg.sender][spender]);\r\n        return true;\r\n    }\r\n\r\n    /**\r\n    * @dev internal function to mint tokens\r\n    * @param account where the new tokens will be minted\r\n    * @param amount number of tokens that will be minted\r\n     */\r\n\r\n    function _mint(address account, uint amount) internal {\r\n        require(account != address(0), \"You can't mint tokens to address 0\");\r\n        _totalSupply = _totalSupply + amount;\r\n        _balances[account] = _balances[account] + amount;\r\n        emit Transfer(address(0), account, amount);\r\n    }\r\n\r\n    /**\r\n    * @dev internal function to burn tokens\r\n    * @param account where the tokens will be burned from\r\n    * @param amount number of tokens to be burned\r\n     */\r\n\r\n    function _burn(address account, uint amount) internal {\r\n        require(account != address(0));\r\n        require(amount <= _balances[account], \"Not enough balance to burn\");\r\n        _totalSupply = _totalSupply - amount;\r\n        _balances[account] = _balances[account] - amount;\r\n        emit Transfer(account, address(0), amount);\r\n    }\r\n\r\n    /**\r\n    * @dev internal\r\n     */\r\n\r\n    function _burnFrom(address account, uint amount) internal {\r\n        require(amount <= _allowed[account][msg.sender], \"You are not allowed to burn this amount from the address\");\r\n        _allowed[account][msg.sender] = _allowed[account][msg.sender] - amount;\r\n        _burn(account, amount);\r\n    }\r\n}",
  "sourcePath": "C:\\Users\\rodri\\web3_projects\\ganache-projects\\blocos\\contracts\\Token.sol",
  "compiler": {
    "name": "solc",
    "version": "0.8.15+commit.e14f2714.Emscripten.clang"
  },
  "schemaVersion": "3.4.7",
  "updatedAt": "2022-07-12T22:42:00.445Z",
  "networkType": "ethereum",
  "devdoc": {
    "kind": "dev",
    "methods": {
      "allowance(address,address)": {
        "details": "return the amount the the owner has authorized a third party address to spend",
        "params": {
          "owner": "owner of the token",
          "spender": "address responsible for spending in behalf of the owner"
        },
        "returns": {
          "_0": "uint for the allowance"
        }
      },
      "approve(address,uint256)": {
        "details": "approve an address to spend tokens on behalf of owner",
        "params": {
          "spender": "address to spend in behalf of owner",
          "value": "amount of tokens to be authorized "
        }
      },
      "balanceOf(address)": {
        "details": "function that return the balance of an specific address",
        "params": {
          "owner": "the address that you want to know the balance"
        }
      },
      "decimals()": {
        "details": "return the decimals of the token",
        "returns": {
          "_0": "the decimals as uint"
        }
      },
      "decreaseAllowance(address,uint256)": {
        "details": "downgrade the allowance for an address to spend in behalf of other",
        "params": {
          "spender": "address to spend tokens in behalf of owner",
          "subtractedValue": "value to be downgraded from the spender allowance"
        }
      },
      "getOwner()": {
        "details": "function to return the address of the _owner"
      },
      "increaseAllowance(address,uint256)": {
        "details": "uprise the allowance of an address to spend in behalf of other",
        "params": {
          "addedValue": "amount of tokens to be uprised on allowance"
        }
      },
      "name()": {
        "details": "return the name of the token",
        "returns": {
          "_0": "the name as string"
        }
      },
      "ownerMint(address,uint256)": {
        "details": "allow owner to mint to specific addresses",
        "params": {
          "amount": "number of tokens that you want to send",
          "to": "address where the tokens should go"
        }
      },
      "remainingTokens()": {
        "details": "function to get the remaining tokens",
        "returns": {
          "_0": "the result of the maximum supply minus the total supply as uint"
        }
      },
      "setAdmin(address)": {
        "details": "set an address as admin",
        "params": {
          "_address": "address that you wanna turn admin"
        }
      },
      "setMaxSupply(uint256)": {
        "details": "sets the maximum supply",
        "params": {
          "amount": "amount of the maximum supply"
        }
      },
      "setTotalSupply(uint256)": {
        "details": "set the total supply"
      },
      "symbol()": {
        "details": "return the symbol of the token",
        "returns": {
          "_0": "the symbol as string"
        }
      },
      "totalSupply()": {
        "details": "function to check the total supply",
        "returns": {
          "_0": "uint representing the total supply"
        }
      },
      "transfer(address,uint256)": {
        "details": "transfer tokens from the sender to an specific address",
        "params": {
          "to": "address where the owner wants to send tokens",
          "value": "value in which the owner wants to transfer in wei "
        }
      },
      "transferFrom(address,address,uint256)": {
        "details": "spend tokens in behalf of owner",
        "params": {
          "from": "owner of the tokens",
          "to": "address where the tokens will be sent",
          "value": "amount of tokens to be spended"
        }
      },
      "transferOwnership(address)": {
        "details": "transfer ownership",
        "params": {
          "_address": "address that the owner wants to turn into the new owner."
        }
      }
    },
    "version": 1
  },
  "userdoc": {
    "kind": "user",
    "methods": {},
    "version": 1
  }
}